10001921KAMI LE        GERMIYAN       2023152000000000000000
10001943KA MI LE       GERMIYAN       2023152000000000000000
10001978KAM IL E       GERMIYAN       2023152000000000000000
10002949H AL IM        GERMIYAN       2023152000000000000000
10003848RU SE N        GERMIYAN       2023152000000000000000
